:020000040000FA
:0600000023EF01F01200E5
:020006000000F8
:08000800D9CFE6FFE1CFD9FFDB
:10001000120EE126DE6ADD6A3F0EF36E020EF3CFAA
:10002000DBFF060EF36E030EF3CFDBFF5B0EF36E0A
:10003000040EF3CFDBFF4F0EF36E050EF3CFDBFFA5
:10004000660EF36E060EF3CFDBFF6D0EF36E070E3A
:10005000F3CFDBFF7D0EF36E080EF3CFDBFF070E51
:10006000F36E090EF3CFDBFF7F0EF36E0A0EF3CFB4
:10007000DBFF670EF36E0B0EF3CFDBFF770EF36E35
:100080000C0EF3CFDBFF7C0EF36E0D0EF3CFDBFF18
:100090005E0EF36E0E0EF3CFDBFF7D0EF36E0F0ED2
:1000A000F3CFDBFF790EF36E100EF3CFDBFF710E93
:1000B000F36E110EF3CFDBFF0F0EC16E956A9368DE
:1000C000F19ED950020F026EDACF03F0DE50022407
:1000D000E96EDD500320EA6EEF50836E81B419D0D3
:1000E000DECF02F0DDCF03F0D890035004E60F0E10
:1000F000025C000E035804E2DF2A010E01E3DB2A52
:1001000081B406D0320EE66EFCEC00F0E552F8D772
:1001100019D081B617D0DECF02F0DDCF03F0033463
:1001200004E202500008000E035404E2DF06010E50
:1001300001E2DB0681B606D0320EE66EFCEC00F082
:10014000E552F8D7BED7120EE15C02E2E16AE55251
:0A015000E16EE552E7CFD9FF12007F
:06015A00060EF66E000E19
:10016000F76E000EF86E00010900F550656F09008A
:10017000F550666F03E1656701D03DD00900F55089
:10018000606F0900F550616F0900F550626F09005A
:100190000900F550E96E0900F550EA6E0900090002
:1001A0000900F550636F0900F550646F09000900FC
:1001B000F6CF67F0F7CF68F0F8CF69F060C0F6FFD0
:1001C00061C0F7FF62C0F8FF0001635302E16453AE
:1001D00007E00900F550EE6E6307F8E26407F9D70F
:1001E00067C0F6FF68C0F7FF69C0F8FF0001650748
:0801F000000E665BBFD7120090
:0801F800FF0EE350056EEF0E4F
:1002000001D0F30EE76EE72E03EF01F00C0E046E43
:10021000E76AE72E09EF01F0042E08EF01F0052E42
:0602200001EF01F01200E5
:0A022600000EF36E00EE00F0080E6B
:1002300001D81200EA6002D0EE6AFCD7F350E96000
:060240001200EE6AFCD77B
:0A02460013EE00F023EE00F0F86A5A
:10025000019CADEC00F031EC01F004EC00F0FBD7B8
:0202600012008A
:02026200120088
:020000040030CA
:0100000004FB
:010001000CF2
:010003001EDE
:010005008179
:0100060001F8
:00000001FF
