:020000040000FA
:060000003DEF02F01200CA
:020006000000F8
:08000800D9CFE6FFE1CFD9FFDB
:100010001B0EE126DE6ADD6A080EDB6A090EDB6A6A
:100020000A0EDB6A190EF36E0B0EF3CFDBFF3F0EE9
:10003000F36E0C0EF3CFDBFF060EF36E0D0EF3CF57
:10004000DBFF5B0EF36E0E0EF3CFDBFF4F0EF36E96
:100050000F0EF3CFDBFF660EF36E100EF3CFDBFF58
:100060007D0EF36E110EF3CFDBFF070EF36E120E53
:10007000F3CFDBFF7F0EF36E130EF3CFDBFF6F0EBC
:10008000F36E140EF3CFDBFF770EF36E150EF3CF86
:10009000DBFF7C0EF36E160EF3CFDBFF580EF36E14
:1000A000170EF3CFDBFF5E0EF36E180EF3CFDBFF00
:1000B000790EF36E190EF3CFDBFF710EF36E1A0E8D
:1000C000F3CFDBFF0F0EC16E956A926A9368929A26
:1000D0009298929692949384938693888094809633
:1000E0008098809AF19E8150040B1AE1080EDB5033
:1000F00017E1DECF10F0DDCF11F0D890115004E6FB
:100100000F0E105C270E115804E2DF2A010E01E3E6
:10011000DB2A81A805D0010EF36E080EF3CFDBFFBA
:1001200081A402D0080EDB6A8150080B19E1090E88
:10013000DB5016E1DECF10F0DDCF11F0113404E218
:1001400010500008000E115404E2DF06010E01E217
:10015000DB0681A805D0010EF36E090EF3CFDBFF9D
:1001600081A602D0090EDB6AD9CFE9FFDACFEAFF18
:10017000020EEECFDBFF030EEDCFDBFFE80E106EBD
:10018000030E116E020EDBCF08F0030EDBCF09F079
:1001900010C00DF011C00EF0E1EC01F0040E08C02B
:1001A000DBFFD950020FE96EDACFEAFFE80E0D6EE1
:1001B000030E0E6EEECF08F0EDCF09F0E1EC01F08A
:1001C00004C0EEFF05C0EDFF640E106E116A020E52
:1001D000DBCF08F0030EDBCF09F010C00DF011C02B
:1001E0000EF0E1EC01F0050E08C0DBFFD950020F64
:1001F000E96EDACFEAFF640E0D6E0E6AEECF08F0FC
:10020000EDCF09F0E1EC01F004C0EEFF05C0EDFF19
:10021000640E106E116A020EDBCF08F0030EDBCF06
:1002200009F010C00DF011C00EF0E1EC01F0060E67
:1002300008C0DBFF020EDBCF10F0030EDBCF11F0A6
:100240000A0E0D6E0E6A10C008F011C009F0E1EC44
:1002500001F004C010F005C011F0070E10C0DBFF64
:10026000D9500C0F106EDACF11F0040EDB500F01D5
:100270001024E96E000E1120EA6EEF50836E809418
:1002800080968098808A0B0EDBCFE6FF1DEC02F093
:10029000E552809AD9500C0F106EDACF11F0060E8D
:1002A000DB500F011024E96E000E1120EA6EEF50B2
:1002B000836E809480968098809A0B0EDBCFE6FF49
:1002C0001DEC02F0E552809480868098809A0B0E97
:1002D000DBCFE6FF1DEC02F0E5528096D9500C0F03
:1002E000106EDACF11F0070EDB500F011024E96E0B
:1002F000000E1120EA6EEF50836E809480968098F5
:10030000809A0B0EDBCFE6FF1DEC02F0E552EBD638
:100310001B0EE15C02E2E16AE552E16EE552E7CFD5
:04032000D9FF1200EF
:0C032400060EF66E000EF76E000EF86E6E
:1003300000010900F550656F0900F550666F03E193
:10034000656701D03DD00900F550606F0900F55098
:10035000616F0900F550626F09000900F550E96E00
:100360000900F550EA6E090009000900F550636FB5
:100370000900F550646F09000900F6CF67F0F7CF68
:1003800068F0F8CF69F060C0F6FF61C0F7FF62C0A7
:10039000F8FF0001635302E1645307E00900F550E0
:1003A000EE6E6307F8E26407F9D767C0F6FF68C02E
:1003B000F7FF69C0F8FF00016507000E665BBFD755
:0203C000120029
:0E03C200006A0EAEEAEF01F00D6C0E1EE86A46
:1003D0000E22001E09AEF2EF01F0086C091EE86A59
:1003E0000922001E07EC02F009BE02EF02F000AE87
:1003F000000C086C091EE86A0922046C051EE86AF4
:0E0400000522000C00BEF9EF01F00188FF0C90
:02040E00056A7D
:10041000046A100EE76ED8900836093604360536A1
:100420000D50045C0E50055805E30D50045E0E504F
:0A043000055A082AE72EF0D7120043
:06043A00FF0EE350126EFC
:10044000480E01D04C0EE76EE72EFED7E76AE72E86
:0A045000FED7122EF7D700001200AD
:06045A00000EF36E00EE3F
:1004600000F0080E01D81200EA6002D0EE6AFCD754
:0A047000F350E9601200EE6AFCD7B9
:06047A0013EE00F023EE7A
:1004800000F0F86A019C92EC01F04BEC02F004ECF5
:0604900000F0FBD7120092
:02049600120052
:020000040030CA
:0100000004FB
:010001000CF2
:010003001FDD
:010005008179
:0100060005F4
:00000001FF
