:020000040000FA
:06000000C6EF00F0120043
:020006000000F8
:08000800060EF66E000EF76E05
:10001000000EF86E00010900F550656F0900F550FB
:10002000666F03E1656701D03DD00900F550606F50
:100030000900F550616F0900F550626F0900090071
:10004000F550E96E0900F550EA6E09000900090053
:10005000F550636F0900F550646F09000900F6CF91
:1000600067F0F7CF68F0F8CF69F060C0F6FF61C0C5
:10007000F7FF62C0F8FF0001635302E1645307E039
:100080000900F550EE6E6307F8E26407F9D767C020
:10009000F6FF68C0F7FF69C0F8FF00016507000EB2
:0600A000665BBFD71200F1
:0A00A600956A946A83908392839414
:1000B00081A402D08380FCD783908384FA0EE66EFD
:1000C0009FEC00F0E552FA0EE66E9FEC00F0E55270
:1000D000FA0EE66E9FEC00F0E552FA0EE66E9FEC2B
:1000E00000F0E552FA0EE66E9FEC00F0E552FA0ED3
:1000F000E66E9FEC00F0E55281A80ED083848280EA
:10010000FA0EE66E9FEC00F0E5528290FA0EE66E73
:100110009FEC00F0E552F0D7839483828280320E08
:10012000E66E9FEC00F0E5528290320EE66E9FEC98
:0E01300000F0E55281B6F1D78392BAD71200E3
:02013E00FF0EB2
:10014000E350036EEF0E01D0F30EE76EE72EA6EF3D
:1001500000F00C0E026EE76AE72EACEF00F0022E04
:0C016000ABEF00F0032EA4EF00F0120043
:04016C00000EF36E20
:1001700000EE00F0080E01D81200EA6002D0EE6A2C
:0C018000FCD7F350E9601200EE6AFCD7D7
:04018C0013EE00F07E
:1001900023EE00F0F86A019C04EC00F0D4EC00F0CF
:0801A00053EC00F0FBD7120044
:0201A800120043
:020000040030CA
:0100000004FB
:010001000CF2
:010003001EDE
:010005008179
:010006008178
:00000001FF
