:020000040000FA
:06000000E0EF01F0120028
:020006000000F8
:08000800D9CFE6FFE1CFD9FFDB
:10001000E652DF6A9384F00E956E956A946A946A4C
:10002000F19E8390838283848386838081B409D008
:10003000DF2A81B406D0320EE66EB9EC01F0E5524B
:10004000F8D7070EDF5C01E23FD1DF6A839083823D
:10005000FA0EE66EB9EC01F0E552FA0EE66EB9EC76
:1000600001F0E552FA0EE66EB9EC01F0E552FA0E37
:10007000E66EB9EC01F0E55283928280320EE66EB4
:10008000B9EC01F0E5528290320EE66EB9EC01F067
:10009000E5528280320EE66EB9EC01F0E5528290B4
:1000A000FA0EE66EB9EC01F0E552FA0EE66EB9EC26
:1000B00001F0E5528384FA0EE66EB9EC01F0E552E8
:1000C000FA0EE66EB9EC01F0E552FA0EE66EB9EC06
:1000D00001F0E552FA0EE66EB9EC01F0E5528394B8
:1000E0008280FA0EE66EB9EC01F0E5528290FA0ECB
:1000F000E66EB9EC01F0E5528280FA0EE66EB9ECDC
:1001000001F0E5528290FA0EE66EB9EC01F0E5528C
:100110008280FA0EE66EB9EC01F0E5528290FA0E9A
:10012000E66EB9EC01F0E5528280FA0EE66EB9ECAB
:1001300001F0E5528290FA0EE66EB9EC01F0E5525C
:100140008386FA0EE66EB9EC01F0E552FA0EE66E21
:10015000B9EC01F0E552FA0EE66EB9EC01F0E552A9
:10016000FA0EE66EB9EC01F0E55283968280FA0E43
:10017000E66EB9EC01F0E5528290FA0EE66EB9EC4B
:1001800001F0E5528280FA0EE66EB9EC01F0E5521C
:100190008290FA0EE66EB9EC01F0E5528280FA0E1A
:1001A000E66EB9EC01F0E5528290FA0EE66EB9EC1B
:1001B00001F0E5528280FA0EE66EB9EC01F0E552EC
:1001C0008290FA0EE66EB9EC01F0E5528280FA0EEA
:1001D000E66EB9EC01F0E5528290FA0EE66EB9ECEB
:1001E00001F0E5528280FA0EE66EB9EC01F0E552BC
:1001F0008290FA0EE66EB9EC01F0E552FA0EE66E68
:10020000B9EC01F0E552FA0EE66EB9EC01F0E552F8
:10021000FA0EE66EB9EC01F0E552FA0EE66EB9ECB4
:1002200001F0E552FA0EE66EB9EC01F0E552FA0E75
:10023000E66EB9EC01F0E5528280FA0EE66EB9EC9A
:1002400001F0E5528290FA0EE66EB9EC01F0E5524B
:100250008280FA0EE66EB9EC01F0E5528290FA0E59
:10026000E66EB9EC01F0E5528280FA0EE66EB9EC6A
:1002700001F0E5528290FA0EE66EB9EC01F0E5521B
:100280008280FA0EE66EB9EC01F0E5528290FA0E29
:10029000E66EB9EC01F0E5528280FA0EE66EB9EC3A
:1002A00001F0E5528290FA0EE66EB9EC01F0E552EB
:1002B0008280FA0EE66EB9EC01F0E5528290FA0EF9
:1002C000E66EB9EC01F0E552B0D6E552E552E7CF63
:0402D000D9FF120040
:0C02D400060EF66E000EF76E000EF86EBF
:1002E00000010900F550656F0900F550666F03E1E4
:1002F000656701D03DD00900F550606F0900F550E9
:10030000616F0900F550626F09000900F550E96E50
:100310000900F550EA6E090009000900F550636F05
:100320000900F550646F09000900F6CF67F0F7CFB8
:1003300068F0F8CF69F060C0F6FF61C0F7FF62C0F7
:10034000F8FF0001635302E1645307E00900F55030
:10035000EE6E6307F8E26407F9D767C0F6FF68C07E
:10036000F7FF69C0F8FF00016507000E665BBFD7A5
:02037000120079
:0E037200FF0EE350036EEF0E01D0F30EE76EA8
:10038000E72EC0EF01F00C0E026EE76AE72EC6EF13
:1003900001F0022EC5EF01F0032EBEEF01F01200B6
:1003A000000EF36E00EE00F0080E01D81200EA60B5
:1003B00002D0EE6AFCD7F350E9601200EE6AFCD777
:1003C00013EE00F023EE00F0F86A019C6AEC01F0F5
:0C03D000EEEC01F004EC00F0FBD7120092
:0203DC0012000D
:020000040030CA
:0100000004FB
:010001000CF2
:010003001EDE
:010005008179
:0100060001F8
:00000001FF
