:020000040000FA
:06000000A6EF00F0120063
:020006000000F8
:08000800060EF66E000EF76E05
:10001000000EF86E00010900F550656F0900F550FB
:10002000666F03E1656701D03DD00900F550606F50
:100030000900F550616F0900F550626F0900090071
:10004000F550E96E0900F550EA6E09000900090053
:10005000F550636F0900F550646F09000900F6CF91
:1000600067F0F7CF68F0F8CF69F060C0F6FF61C0C5
:10007000F7FF62C0F8FF0001635302E1645307E039
:100080000900F550EE6E6307F8E26407F9D767C020
:10009000F6FF68C0F7FF69C0F8FF00016507000EB2
:0600A000665BBFD71200F1
:0A00A600956A966A946A960EE66E5B
:1000B0007FEC00F0E552836A960EE66E7FEC00F06E
:1000C000E5528368960EE66E7FEC00F0E552F80E7E
:1000D000846EFA0EE66E7FEC00F0E552836A846A65
:1000E000140EE66E7FEC00F0E552FE0E826E140EEA
:0E00F000E66E7FEC00F0E552826AD8D712006F
:0200FE00FF0EF3
:10010000E350036EEF0E01D0F30EE76EE72E86EF9D
:1001100000F00C0E026EE76AE72E8CEF00F0022E64
:0C0120008BEF00F0032E84EF00F01200C3
:04012C00000EF36E60
:1001300000EE00F0080E01D81200EA6002D0EE6A6C
:0C014000FCD7F350E9601200EE6AFCD717
:04014C0013EE00F0BE
:1001500023EE00F0F86A019C04EC00F0B4EC00F02F
:0801600053EC00F0FBD7120084
:02016800120083
:020000040030CA
:0100000004FB
:010001000CF2
:010003001EDE
:010005008179
:0100060001F8
:00000001FF
