:020000040000FA
:060000003DEF01F01200CB
:020006000000F8
:08000800956A966A946A0A0EDB
:10001000E66E16EC01F0E552836A0A0EE66E16EC07
:1000200001F0E552010E836E0A0EE66E16EC01F049
:10003000E552020E836E0A0EE66E16EC01F0E552F2
:10004000040E836E0A0EE66E16EC01F0E552080E01
:10005000836E0A0EE66E16EC01F0E552100E836E0A
:100060000A0EE66E16EC01F0E552200E836E0A0EC3
:10007000E66E16EC01F0E552400E836E0A0EE66E57
:1000800016EC01F0E552800E836E0A0EE66E16EC59
:1000900001F0E552400E836E0A0EE66E16EC01F09A
:1000A000E552200E836E0A0EE66E16EC01F0E55264
:1000B000100E836E0A0EE66E16EC01F0E552080E85
:1000C000836E0A0EE66E16EC01F0E552040E836EA6
:1000D0000A0EE66E16EC01F0E552020E836E0A0E71
:1000E000E66E16EC01F0E552010E836E0A0EE66E26
:1000F00016EC01F0E552836A3C0EE66E16EC01F058
:10010000E552846A320EE66E16EC01F0E552010EFD
:10011000846E280EE66E16EC01F0E552020E846E37
:100120001E0EE66E16EC01F0E552040E846E140EFF
:10013000E66E16EC01F0E552070E846E0A0EE66ECE
:1001400016EC01F0E552040E846E140EE66E16EC09
:1001500001F0E552020E846E1E0EE66E16EC01F002
:10016000E552010E846E280EE66E16EC01F0E552A3
:10017000846A140EE66E16EC01F0E5528268550EA4
:0E018000E66E16EC01F0E552826A41D71200DD
:02018E00060E5B
:10019000F66E000EF76E000EF86E00010900F550C5
:1001A000656F0900F550666F03E1656701D03DD0CA
:1001B0000900F550606F0900F550616F0900F550B6
:1001C000626F09000900F550E96E0900F550EA6E0A
:1001D000090009000900F550636F0900F550646FCC
:1001E00009000900F6CF67F0F7CF68F0F8CF69F0A3
:1001F00060C0F6FF61C0F7FF62C0F8FF0001635303
:1002000002E1645307E00900F550EE6E6307F8E27F
:100210006407F9D767C0F6FF68C0F7FF69C0F8FF49
:0C02200000016507000E665BBFD71200EE
:04022C00FF0EE3508E
:10023000036EEF0E01D0F30EE76EE72E1DEF01F017
:100240000C0E026EE76AE72E23EF01F0022E22EF7A
:0A02500001F0032E1BEF01F0120075
:06025A00000EF36E00EE41
:1002600000F0080E01D81200EA6002D0EE6AFCD756
:0A027000F350E9601200EE6AFCD7BB
:06027A0013EE00F023EE7C
:1002800000F0F86A019CC7EC00F04BEC01F004ECC4
:0602900000F0FBD7120094
:02029600120054
:020000040030CA
:0100000004FB
:010001000CF2
:010003001EDE
:010005008179
:0100060001F8
:00000001FF
