:020000040000FA
:0600000063EF00F01200A6
:020006000000F8
:08000800060EF66E000EF76E05
:10001000000EF86E00010900F550656F0900F550FB
:10002000666F03E1656701D03DD00900F550606F50
:100030000900F550616F0900F550626F0900090071
:10004000F550E96E0900F550EA6E09000900090053
:10005000F550636F0900F550646F09000900F6CF91
:1000600067F0F7CF68F0F8CF69F060C0F6FF61C0C5
:10007000F7FF62C0F8FF0001635302E1645307E039
:100080000900F550EE6E6307F8E26407F9D767C020
:10009000F6FF68C0F7FF69C0F8FF00016507000EB2
:0600A000665BBFD71200F1
:0A00A600000EF36E00EE00F0080EED
:1000B00001D81200EA6002D0EE6AFCD7F350E96082
:0600C0001200EE6AFCD7FD
:0A00C60013EE00F023EE00F0F86ADC
:1000D000019C04EC00F07CEC00F071EC00F0FBD72C
:0200E00012000C
:0E00E200956A040E936E81B4836A81B402D0D5
:0800F000010E836EF9D7120026
:0200F8001200F4
:020000040030CA
:0100000004FB
:010001000CF2
:010003001EDE
:010005008179
:0100060001F8
:00000001FF
