:020000040000FA
:06000000A0EF00F0120069
:0A00060001005E0100006A00000026
:0400100001000000EB
:0C001400060EF66E000EF76E000EF86E81
:1000200000010900F550656F0900F550666F03E1A6
:10003000656701D03DD00900F550606F0900F550AB
:10004000616F0900F550626F09000900F550E96E13
:100050000900F550EA6E090009000900F550636FC8
:100060000900F550646F09000900F6CF67F0F7CF7B
:1000700068F0F8CF69F060C0F6FF61C0F7FF62C0BA
:10008000F8FF0001635302E1645307E00900F550F3
:10009000EE6E6307F8E26407F9D767C0F6FF68C041
:1000A000F7FF69C0F8FF00016507000E665BBFD768
:0200B00012003C
:0E00B200956A836800016A6B6A51026E036AE8
:1000C000D890035004E6000E025C010E03580FE2C4
:1000D0006A1D836EFA0EE66E79EC00F0E552FA0EB8
:1000E000E66E79EC00F0E55200016A2BE6D7E3D723
:0200F0001200FC
:0E00F200FF0EE350056EEF0E01D0F30EE76E29
:10010000E72E80EF00F00C0E046EE76AE72E86EF14
:1001100000F0042E85EF00F0052E7EEF00F01200B7
:10012000000EF36E00EE00F0080E01D81200EA6037
:1001300002D0EE6AFCD7F350E9601200EE6AFCD7F9
:1001400013EE00F023EE00F0F86A019C0AEC00F0D8
:0C015000AEEC00F059EC00F0FBD7120000
:02015C0012008F
:01015E0000A0
:020000040030CA
:0100000004FB
:010001000CF2
:010003001EDE
:010005008179
:010006008178
:00000001FF
